:020000040800F2
:10000000E807002045010008F5350008A1140008A4
:100010007D340008AD0B00089F4F00080000000071
:10002000000000000000000000000000D1380008BF
:10003000F11000080000000097360008013A00089F
:100040005F0100085F0100085F0100085F01000810
:100050005F0100085F0100085F0100085F01000800
:100060005F0100085F0100085F0100085F010008F0
:100070005F0100085F0100085F0100085F010008E0
:100080005F0100085F0100085F0100085F010008D0
:100090005F0100085F0100085F010008F31000081D
:1000A0005F0100085F0100085F0100085F010008B0
:1000B0005F010008D53F00085F0100085F010008EC
:1000C0005F0100085F0100085F0100085F01000890
:1000D0005F010008254C00085F010008694C00081A
:1000E0005F0100085F0100085F0100085F01000870
:1000F0005F0100085F0100085F0100085F01000860
:100100005F0100085F010008AD4200085F010008C0
:100110005F0100085F0100085F0100085F0100083F
:100120005F0100085F0100085F0100085F0100082F
:10013000DFF80CD000F098FC004800472D6C000858
:10014000E80700200648804706480047FEE7FEE72C
:10015000FEE7FEE7FEE7FEE7FEE7FEE7FEE7FEE777
:10016000053A000831010008F0B480EA0102D40F1A
:100170004200B2EB410F02D20246084611464A0045
:1001800042D0C30DDDB2C1F3C752AD1A202D35DA0E
:10019000C1F3160141F4000204B15242C5F1200638
:1001A00002FA06F12A411044B3EBD05F23D0C4B168
:1001B000012DA0EBC35009DCF0BC4FF0004202EA75
:1001C000C352DBB200F5000000F02BBB400000F191
:1001D000807000EBC350A0F1807040EAD1704900FC
:1001E00009E0490841EAC071A0EBC35000F50000E6
:1001F000400800EBC350F0BC00F00ABB6142012292
:1002000002EB4101001BF6E7F0BC704781F00041B2
:10021000AAE780F00040A7E780EA010210B502F0EB
:100220000043400022D04A001FD0010E01EB1261B2
:10023000C0F35600C2F3560240F4000042F400023C
:10024000A0FB022000047F39140400D0401C50EAB7
:10025000124001D44000491EC2B20C0604EBD0107B
:10026000401C4008802A02D003E0002010BD20F08E
:100270000100002900DA0020184310BD30B480EAE4
:10028000010202F0004530F0004221F0004013D09E
:1002900090B1C30DD40DC2F31601C0F31600E41AD9
:1002A00041F4000140F400027D34914201D3641C0A
:1002B00000E04900002C02DA30BC002070474FF407
:1002C00000000023914201D3891A034340084FEAFA
:1002D0004101F7D151B1914202D14FF0004105E007
:1002E00002D24FF0010101E06FF0010103EBC450B5
:1002F000284430BC00F08CBA2DE9FE4F804681EADC
:100300000300C00F0C46009021F0004123F000458F
:10031000B8EB0200A94105D24046214690461C4652
:100320000B46024623F00040104347D0270DC7F389
:100330000A00C3F30A510290401A019040286BDA78
:10034000C3F3130040F4801B0098924620B10023B1
:10035000D2EB030A63EB0B0B01985946C0F1400244
:10036000504600F024FA06460D4650465946019A7A
:1003700000F03CFA10EB08006141002487EA1152BA
:1003800084EAE7731A4340D0009A62B3019A012AC3
:100390004FEA075215DC001B61EB02014FF00042EF
:1003A00002EA0752CDE90042001C41F580113246B5
:1003B0002B4600F073FA03B0BDE8F08F40462146AB
:1003C000F9E7001B61EB0201001C41F580130018E6
:1003D0005B412018A2F5001747EB030140EAD570F6
:1003E000B6196D4111E06D084FEA360645EAC07551
:1003F0004FEA0752001B61EB0201001C41F580111E
:1004000049084FEA30000019514132462B4603B0EB
:10041000BDE8F04F00F033BA0098012240000023FD
:10042000D0EB020263EBE073009821464FEAE074E0
:10043000B8EB000061EB0401E9E783F000435BE700
:1004400081F0004158E72DE9FE4F81EA030404F0F2
:10045000004421F0004100944FF0000B23F00043D2
:1004600050EA01045ED052EA03045BD0C3F30A549D
:10047000C1F30A552C44A4F2F3340194A0FB0254B6
:10048000C1F3130141F48011C3F3130343F4801348
:1004900001FB024400FB034E840A970A44EA81549C
:1004A00047EA8357A4FB076802958D0A05FB078579
:1004B0004FEA932C04FB0C542705029D4FEA065883
:1004C00047EA1637B5EB08056EEB070C870E920E60
:1004D00047EA811742EA8312A7FB0201B6EB0B0140
:1004E00064EB00042B0D43EA0C335E1844EB1C5004
:1004F000DA465146E7FB0201C5F313044FEA0B331A
:1005000043EA14534FEA0432019C43EA0603A4F180
:100510000C040294009CCDE900B400F0BFF903B0D4
:10052000BDE8F08F00200146F9E72DE9F04D81EAA2
:10053000030404F0004B21F0004514464FF0000A7C
:1005400023F0004150EA050220D054EA01021DD0F8
:10055000C5F30A570246C5F31303C1F31300C1F3F1
:100560000A5640F4801543F48013A7EB0608101BCD
:10057000D64608F2FD3873EB050002D308F10108F6
:1005800001E092185B41B8F1000F03DA0020014648
:10059000BDE8F08D00204FF48011064684460EE041
:1005A000171B73EB050705D3121B63EB050306430B
:1005B0004CEA010C49084FEA300092185B4150EABE
:1005C0000107EDD152EA030012D082EA040083EA67
:1005D0000501084305D0101BAB4106D201220023C0
:1005E00006E000224FF0004302E06FF001025310DA
:1005F0001AEB06004CEB085110EB0A0041EB0B0123
:10060000BDE8F04D00F03BB9C10F80EAE07008444E
:10061000CA079623002100F004B996230022114650
:1006200000F0FFB80EB5C10F80EAE0700844CA07B9
:10063000002140F233438DE80E000A460B4600F0DD
:100640002DF903B000BD20F00040C10DC0F316002D
:1006500040F400007F2901DA00207047962903DC6E
:10066000C1F19601C840704796398840704770B50F
:10067000C1F30A5201F000450024C1F3130140F216
:10068000FF3341F480119A4201DA002070BD40F23C
:1006900033439A42A2F2334203DC524200F096F80E
:1006A00000E090402C43F1D0404270BD00F0004289
:1006B00030F000400AD0C10D01F56071C0F31600A2
:1006C00042EA0151C2084007114370470020014629
:1006D000704701F0004330B421F0004150EA0102BC
:1006E00006D00A0DA2F56072C1F31301002A02DCE4
:1006F00030BC00207047440F44EAC104C100E01838
:1007000030BC00EBC25000F083B80000002801DBD1
:10071000C0F10040002901DBC1F100418142704776
:1007200030B50B46014600202022012409E021FAC1
:1007300002F59D4205D303FA02F5491B04FA02F5BE
:100740002844151EA2F10102F1DC30BD2DE9F05F55
:100750000546002092469B46884606468146402430
:100760001BE0284641464746224600F02FF85346F4
:100770005A46C01A914110D311461846224600F03D
:1007800016F82D1A67EB01084F462246012000217A
:1007900000F00DF817EB00094E41201EA4F10104F2
:1007A000DFDC484631462A464346BDE8F09F202A12
:1007B00004DB203A00FA02F1002070479140C2F1B8
:1007C000200320FA03F3194390407047202A04DBEA
:1007D000203A21FA02F00021704721FA02F3D040BA
:1007E000C2F120029140084319467047202A06DBD7
:1007F000CB17203A41FA02F043EAE07306E041FAEF
:1008000002F3D040C2F120029140084319467047DC
:100810000029A8BF7047401C490008BF20F0010014
:10082000704710B4B0FA80FC00FA0CF050EA0104F2
:1008300004BF10BC704749B1CCF1200421FA04F484
:1008400011FA0CF118BF012121430843A3EB0C015D
:10085000CB1D4FEA00614FEA102042BF002010BCC0
:10086000704700EBC35010440029A4BF10BC704770
:10087000401C490008BF20F0010010BC704710B5B3
:10088000141E73F1000408DA401C41F100019218B3
:100890005B411A4301D120F0010010BD2DE9F04D5C
:1008A00092469B4611B1B1FA81F202E0B0FA80F2B1
:1008B00020329046FFF77BFF04460F4640EA0A00CD
:1008C00041EA0B0153465A46084313D0114653EAF6
:1008D000010019D0C8F140025046FFF777FF0546E6
:1008E0000E46504659464246FFF761FF084305D081
:1008F000012004E020463946BDE8F08D0020054384
:1009000046EAE0762C4337430A986305E40AA0EBF5
:1009100008000022FD0A44EA47540A3002D50020AC
:100920000146E9E7010510196941DDE908450019AB
:100930006941BDE8F04DA2E770B521F000430343E3
:100940000CD0C1F30A550024D5EB040564EB040375
:10095000D617AD1AB34102DB0020014670BD201846
:1009600041EB025170BD2DE9F04D00231A461B1AD0
:100970008A4103DB00200146BDE8F08DC1F30A5235
:10098000C1F3130141F480154FF0000BD10702D1E0
:1009900000186D41521E0027044640F2FF113846F0
:1009A00001EB620A3E468046024600204FF4801169
:1009B000FFF70CFFC2197141BB1846EB0100B4EB05
:1009C000030C75EB000C04D3E41A65EB0005174625
:1009D0000E46241908F101006D4180463428E3DDFC
:1009E000F91946EB0600091BA84103D24FF0FF326C
:1009F000134601E0002213461BEB070046EB0A51A9
:100A0000BDE8F04DFFF73BBFC1F30A52C1F313013C
:100A100040F2FF3341F480119A4202DA002001468D
:100A2000704740F233439A42A2F2334202DC524210
:100A3000FFF7CCBEFFF7BBBE30B5041E71F100045A
:100A400004DB4FF00044404264EB0101141E73F1DB
:100A5000000405DB1C464FF00043524263EB0403E5
:100A6000994208BF904230BD064C074D06E0E06851
:100A700040F0010394E8070098471034AC42F6D3E5
:100A8000FFF75AFB007A0008207A00080EB540F202
:100A9000334102910021CDE900110A460B46FFF7D0
:100AA000FDFE03B000BD00002DE9F0414FF4966655
:100AB0004FF4E16703243948008900B2A0F2DC500A
:100AC000322190FBF1F0484305B23448808900B2EE
:100AD000A0F2DC5090FBF1F830480068B04201D839
:100AE000022406E02D480068B84201D8012400E045
:100AF00003242A484068B04203D8002028490870DF
:100B00000AE026484068B84203D80020244908700B
:100B100002E00120224908702148007888B3032CA4
:100B20000DD120211F4800F07DFC20B920211D4857
:100B300000F083FC03E020211A4800F07CFC032C29
:100B400001D0022C26D1022D02DA15F1020F03DCAE
:100B5000284602F0BFFE02E0002002F0BBFE0F4874
:100B6000C06840F2FA51884205D20C48C06840F291
:100B7000BE51884206D841460B48006802F08CFC02
:100B800008E002E002F07CFC04E0002002F0A2FE9B
:100B900002F076FC2046BDE8F0810000D80300207A
:100BA00056000020001801402C00002000BFFEE786
:100BB00070B5044600251EE005F030FE022005F069
:100BC000B3FE1F4A11681F4A1068FFF7CDFA1D498E
:100BD00008601B4A51681B4A5068FFF7C5FA19495B
:100BE0004860174A9168174A9068FFF7BDFA15499F
:100BF0008860681C85B2A542DEDB2046FFF70DFD4C
:100C00000646104908683146FFF738FB0D49086071
:100C10002046FFF702FD06460A4948683146FFF7BD
:100C20002DFB084948602046FFF7F7FC06460549BA
:100C300088683146FFF722FB0249886070BD0000DA
:100C40000001002024010020F0B541F6BC30174916
:100C50004FF4E452164B41F2FB44144D6B3D012618
:100C6000144FFE80461AD71A96FBF7F636B2114F8C
:100C70003E81461A671B96FBF7F636B20D4F7E8112
:100C8000461806EBD6777F10DFF828C0ACF8007066
:100C9000D61806EBD6777F10ACF80270661906EB13
:100CA000D6777F10ACF80470F0BD00002BFAFFFF80
:100CB00018FCFFFF600100202DE9FF5F80480168FC
:100CC0000068FFF7A9FA83467E4801680068FFF7CD
:100CD000A3FA59460190FFF747FA82464FF0804148
:100CE000FFF79AFA81464FF07E51FFF792FA0446D9
:100CF000FFF7DCFC07468846714801684FF08040EA
:100D0000FFF78AFA8346704801685846FFF784FA6D
:100D100081466E4801684FF08040FFF77DFA8346B8
:100D2000684801685846FFF777FA82464946FFF758
:100D30001BFA0446FFF7BAFC3A464346CDE90201E6
:100D400005F0BEFB0546FFF7C4FC614908605C483E
:100D500001685E480068FFF75FFA82465A480168FA
:100D600058480068FFF758FA83465146FFF74EFA95
:100D700081464FF04041FFF74FFA0446FFF796FCDB
:100D8000074605F055F90546FFF7A3FC51490860F1
:100D90004D4801680068FFF73FFA834648480168FC
:100DA0000068FFF739FA59460190FFF7DDF98246EE
:100DB0004FF08041FFF730FA81464FF07E51FFF748
:100DC00028FA0446FFF772FC05460E463D480168C6
:100DD0004FF08040FFF720FA8346394801685846B3
:100DE000FFF71AFA8146394801684FF08040FFF753
:100DF00013FA8346344801685846FFF70DFA8246D5
:100E00004946FFF7B1F90446FFF750FC07462A466A
:100E1000334605F055FBCDE90201FFF75AFC2E4998
:100E200008602B48006880F0004B2C495846FFF7BB
:100E3000F3F98246FFF73AFC8046294A294BFFF72F
:100E400074FB06464FF00042274BFFF7F6FA0446C4
:100E5000FFF73FFC25490860002124480068FFF7A0
:100E600055FC06D2224921480068FFF77DF91F4949
:100E700008601A4917480068FFF7CEF98046FFF767
:100E800015FC0646164A174BFFF74FFB0446FFF7C3
:100E900020FC1849086011490F480068FFF7BCF9A9
:100EA0008046FFF703FC06460D4A0E4BFFF73DFB5D
:100EB0000446FFF70EFC10490860BDE8FF9F0000E4
:100EC0006C000020680000207000002074000020EA
:100ED000800000207C0000207800002000003443C7
:100EE0004AD8124DFB21094028F98C3F840000208C
:100EF0000000B4438C0000208800002000F08051E6
:100F000011B10349086001E00249486070470000E0
:100F1000040402400000024021B1026842F00102D4
:100F2000026004E002684FF6FE731A4002607047E8
:100F300001684FF6FE7211400160002101604160BE
:100F40008160C1604B49884208D14A4908394968E3
:100F500041F00F01474A083A51608AE0454914318F
:100F6000884208D143490839496841F0F001414AB3
:100F7000083A51607DE03F492831884208D13D4917
:100F80000839496841F470613A4A083A516070E0A2
:100F900038493C31884208D136490839496841F41A
:100FA0007041344A083A516063E032495031884216
:100FB00008D130490839496841F470212D4A083A6E
:100FC000516056E02B496431884208D129490839DB
:100FD000496841F47001274A083A516049E02549BF
:100FE0007831884208D123490839496841F0706155
:100FF000204A083A51603CE01F49884206D1011F4F
:10100000096841F00F01021F116032E01A491431E2
:10101000884208D11849091F096841F0F001164AB1
:10102000121F116025E014492831884208D1124965
:10103000091F096841F470610F4A121F116018E01E
:101040000D493C31884208D10B49091F096841F418
:101050007041094A121F11600BE007495031884264
:1010600007D10549091F096841F47021024A121F7E
:1010700011607047080002400804024001464868B9
:1010800080B2704701460020002201F0805313B166
:10109000054B1A6801E0054B1A6802EA01030BB11F
:1010A000012000E0002070470004024000000240E0
:1010B00010B50022026847F6F0739A430C6A8B68F9
:1010C00023430C6923434C6923438C692343CC6934
:1010D00023434C6A23438C6A23431A430260CB6840
:1010E00043600B6883604B68C36010BD416070470C
:1010F000704710B5202000F00BF8202000F002F817
:1011000010BD000001490860704700001404014050
:10111000014600200022074B1B6803EA0102054B31
:1011200014331B680B4013B10AB1012000E000200A
:1011300070470000000401402DE9F84F06460F46B5
:1011400090469946DDF828A00F20009005209AFBD4
:10115000F0F03849B1F9001088424EDC00203549E2
:101160000880BE4206DBF41BB42C01DB002507E03F
:10117000012505E0BC1BB42C01DB012500E00025A6
:101180009DF80000844235DB412C11DD15B1012DA5
:1011900009D103E0284802F09DFB08E04FF4FA7003
:1011A00002F098FB03E0002002F094FB00BF24E073
:1011B00015B1012D19D10CE0282C02DD1E49643136
:1011C00003E004EB84014900494208B202F082FBCB
:1011D0000FE0282C02DD4FF4C87102E004EB84011B
:1011E000490008B202F076FB03E0002002F072FB37
:1011F00000BF02E0002002F06DFB09F0800010B19A
:1012000002F03EF90DE0B8F1C80F05DB01210B48F3
:10121000006802F041F904E001210848006802F08A
:101220003BF904480088401C00B202490880BDE830
:10123000F88F0000940000200CFEFFFF2C0000201F
:1012400008B50121402002F057FA10208DF8030064
:101250002020ADF8000003208DF802006946054803
:1012600000F00CF82020ADF800006946024800F0BC
:1012700005F808BD000C0140001801402DE9F041BF
:10128000024600250026002000230024002791F8B4
:1012900003C00CF00F0591F803C00CF0100CBCF16A
:1012A000000F03D091F802C04CEA050591F800C088
:1012B000BCF1000F31D0146800202BE04FF0010C7E
:1012C0000CFA00F3B1F800C00CEA03069E4220D1EC
:1012D00083004FF00F0C0CFA03F7BC4305FA03FC34
:1012E0004CEA040491F803C0BCF1280F06D14FF07A
:1012F000010C0CFA00FCC2F814C00AE091F803C01B
:10130000BCF1480F05D14FF0010C0CFA00FCC2F8FB
:1013100010C0401C0828D1D31460B1F800C0BCF143
:10132000FF0F34DD546800202EE000F1080C4FF070
:10133000010808FA0CF3B1F800C00CEA03069E425B
:1013400021D183004FF00F0C0CFA03F7BC4305FAD0
:1013500003FC4CEA040491F803C0BCF1280F05D14A
:1013600000F1080C08FA0CF8C2F8148091F803C0D8
:10137000BCF1480F07D100F1080C4FF0010808FA42
:101380000CF8C2F81080401C0828CED35460BDE889
:10139000F0810000F0B50A4600230024002100255A
:1013A00000F00046B6F1004F02D11D4EF16901E098
:1013B0001B4E7168C0F3034583B200F44016B6F5C6
:1013C000401F08D121F07061154E766826F07066D6
:1013D000134F7E6012E000F48016B6F5801F06D130
:1013E000032606FA05F4A14341F0706106E0460DBC
:1013F000360103FA06F6B14341F0706122B1460DA1
:10140000360103FA06F6314300F00046B6F1004F0C
:1014100002D1034EF16101E0014E7160F0BD0000A8
:10142000000001400246002093680B400BB10120F0
:1014300000E0002070474161704701617047000083
:101440000020064908704870887048608860C8604D
:10145000086148618861C86108847047B80000204D
:1014600010B504464021074803F0C8FC2146054852
:1014700003F091FD00BF4021024803F0BFFC0128AA
:10148000F9D110BD00480040014880887047000035
:101490000803002001488088704700006C0100208C
:1014A00000BFFEE710B54FF480510D48FFF7C3FFB2
:1014B00002F0FCF94FF400610948FFF7BCFF02207D
:1014C00005F050FA4FF480510548FFF7B6FF0220AF
:1014D00005F048FA4FF480510148FFF7ACFF10BD0A
:1014E0000010014008B50121102002F005F94FF469
:1014F000C050ADF8000010208DF8030003208DF8D7
:10150000020069460648FFF7B9FE4FF480510448CF
:10151000FFF793FF4FF400610148FFF78EFF08BD0E
:101520000010014010B54FF480510D48FFF783FFC4
:1015300002F0BCF94FF400610948FFF77EFF02207A
:1015400005F010FA4FF480510548FFF776FF0220AE
:1015500005F008FA4FF480510148FFF76CFF10BD09
:101560000010014070B50546002402F08FF90026F6
:101570001BE04FF480511248FFF75DFF022005F099
:10158000F1F94FF480510E48FFF757FF6006040E43
:101590004FF400610A48FFF745FF08B1601CC4B270
:1015A000012005F0DFF9701CC6B2082EE1DB15B989
:1015B000FFF7B8FF01E0FFF775FF204670BD0000A0
:1015C0000010014070B5044602F070F94FF48051EC
:1015D0001748FFF730FF002526E0E00930B1012869
:1015E0000AD1C1021248FFF728FF05E04FF400615D
:1015F0000F48FFF720FF00BF00BF6006040E022067
:1016000005F0B0F94FF480510948FFF716FF0220AA
:1016100005F0A8F94FF480510548FFF70CFF0220B0
:1016200005F0A0F9681CC5B2082DD6DB70BD00001E
:101630000010014010B502F039F94FF400610E4876
:10164000FFF7FBFE022005F08DF94FF480510A48A8
:10165000FFF7F3FE032005F085F94FF4006106481B
:10166000FFF7E9FE032005F07DF94FF480510248B1
:10167000FFF7E1FE10BD00000010014010B502F0C0
:1016800015F94FF480510C48FFF7D5FE4FF4006177
:101690000948FFF7D0FE032005F064F94FF48051AC
:1016A0000548FFF7CAFE4FF400610348FFF7C5FE87
:1016B000032005F057F910BD0010014010B50024BB
:1016C00002F0E4F84FF400611248FFF7B6FE012083
:1016D00005F048F94FF480510E48FFF7AEFE0120A7
:1016E00005F040F907E0601C84B2FA2C03DDFFF737
:1016F000C5FF002010BD4FF400610648FFF792FEC1
:101700000028F0D14FF480510248FFF794FE0120E9
:10171000F0E70000001001404CF6CC4001490860A1
:1017200070470000003000404AF6AA2001490860D6
:1017300070470000003000400149486070470000D9
:1017400000300040014988607047000000300040D0
:1017500001490860704700000030004000B593B0B8
:101760004FF4A06001F080FFFE480078119005F072
:10177000B9F802F0E5FDFFF763FDFFF7B3FE05F0F2
:101780004BFD05F041FD01F02DFF01F079FE002039
:1017900002F0A0F84FF42F7005F0C6F800221146B1
:1017A0004FF4612005F0FCFEFFF74AFE4FF416509F
:1017B00005F098FE052005F0B7F84FF4165003F039
:1017C000C1F9052005F0B0F803F0A4F9052005F0F3
:1017D000ABF803F05BF9052005F0A6F803F06EF90D
:1017E00005F04AFF20B1E0A003F06CFC04F028FFF4
:1017F00000F014FC05F063FF10B1E0A003F062FC00
:101800006420FFF7D5F9FFF71FFA05F0C7FB05F0D5
:1018100005F8002005F0CAF805F00EFADC488068EB
:101820000B90FEF743FFCDE90E01D94840680B90BD
:10183000FEF73CFFCDE90C01DDE90E2304F040FE8C
:10184000CDE91001FEF745FFD2490860D048806815
:101850000B90FEF72BFFCDE90E01CD4800680B90F1
:10186000FEF724FFCDE90C01DDE90E2304F028FE8C
:10187000CDE91001FEF72DFFC7490860C748B0F950
:1018800000000890FEF7C0FE0990FEF70FFFCDE9BB
:101890000C01C248B0F902000890FEF7B5FE0990AD
:1018A000FEF704FFCDE90A01DDE90C2304F008FE90
:1018B000BB4ABC4BCDE90E01FEF7C2FDCDE91001DC
:1018C000FEF707FFB8490860B848B0F90000FEF716
:1018D0009BFE1190B44801681198FEF79AFCB2493A
:1018E00008604FF08041AC480068FEF7C7FC0590E7
:1018F000FEF7DCFECDE9060105F096FCCDE90A0114
:101900004FF08041A3480068FEF7B8FC0190FEF755
:10191000CDFECDE9020105F087FCCDE906014FF0CF
:101920008041A1480068FEF7A9FC0190FEF7BEFEC9
:10193000CDE9020105F078FCCDE90401DDE90623DB
:10194000FEF781FDCDE90801DDE90A23FEF77BFD05
:10195000CDE90E014FF080418F480068FEF78EFC04
:101960000590FEF7A3FECDE9060104F009FFCDE9DD
:101970000A014FF0804187480068FEF77FFC019024
:10198000FEF794FECDE9020104F0FAFECDE906016E
:101990004FF0804184480068FEF770FC0190FEF72C
:1019A00085FECDE9020104F0EBFECDE90401DDE99D
:1019B0000623FEF748FDCDE90801DDE90A23FEF71D
:1019C00042FDCDE90C01DDE90E23FEF795FCCDE9E2
:1019D0001001FEF77EFE764908604FF080416E48A8
:1019E0000068FEF74BFC0590FEF760FECDE90601AE
:1019F00005F01AFCCDE90A014FF080416548006806
:101A0000FEF73CFC0190FEF751FECDE9020105F026
:101A10000BFCCDE906014FF0804163480068FEF7FA
:101A20002DFC0190FEF742FECDE9020104F0A8FE74
:101A3000CDE90401DDE90623FEF705FDCDE9080146
:101A4000DDE90A23FEF7FFFCCDE90E014FF08041EE
:101A500051480068FEF712FC0590FEF727FECDE91D
:101A6000060104F08DFECDE90A014FF0804149489E
:101A70000068FEF703FC0190FEF718FECDE90201B5
:101A800004F07EFECDE906014FF080414648006833
:101A9000FEF7F4FB0190FEF709FECDE9020105F027
:101AA000C3FBCDE90401DDE90623FEF7CCFCCDE95B
:101AB0000801DDE90A23FEF7C6FCCDE90C01DDE9EA
:101AC0000E23FEF7BAFCCDE91001FEF702FE3949FC
:101AD00008604FF0804130480068FEF7CFFB05906A
:101AE000FEF7E4FDCDE9060105F09EFBCDE90A0114
:101AF0004FF0804127480068FEF7C0FB0190FEF7D9
:101B0000D5FDCDE9020104F03BFECDE906014FF021
:101B1000804125480068FEF7B1FB0190FEF7C6FD45
:101B2000CDE9020105F080FBCDE90401DDE90623E2
:101B3000FEF789FCCDE90801DDE90A23FEF783FC05
:101B4000CDE90E014FF0804113480068FEF796FB87
:101B50000590FEF7ABFDCDE9060104F011FECDE9DD
:101B60000A0129E0140000200A436F6D706173734D
:101B7000204F6E6C696E65210A0000000A4D5055B9
:101B800036303530204F6E6C696E65210A000000DA
:101B9000E80000207C000020780000205401002094
:101BA0004AD8124DFB210940800000202800002067
:101BB00074000020680000204FF0804162480068F7
:101BC000FEF75CFB0190FEF771FDCDE9020105F027
:101BD0002BFBCDE906014FF080415C480068FEF721
:101BE0004DFB0190FEF762FDCDE9020104F0C8FD56
:101BF000CDE90401DDE90623FEF725FCCDE9080166
:101C0000DDE90A23FEF71FFCCDE90C01DDE90E2317
:101C1000FEF772FBCDE91001FEF75BFD4C49086051
:101C20004FF080414B480068FEF728FB0590FEF717
:101C30003DFDCDE9060104F0A3FDCDE90A014FF019
:101C4000804141480068FEF719FB0190FEF72EFD28
:101C5000CDE9020105F0E8FACDE906014FF0804137
:101C60003A480068FEF70AFB0190FEF71FFDCDE938
:101C7000020105F0D9FACDE90401DDE90623FEF7FA
:101C8000E2FBCDE90801DDE90A23FEF7DCFBCDE943
:101C90000E014FF080412F480068FEF7EFFA0590E3
:101CA000FEF704FDCDE9060105F0BEFACDE90A0113
:101CB0004FF0804124480068FEF7E0FA0190FEF7FB
:101CC000F5FCCDE9020104F05BFDCDE906014FF022
:101CD00080411E480068FEF7D1FA0190FEF7E6FC4D
:101CE000CDE9020104F04CFDCDE90401DDE9062354
:101CF000FEF7A9FBCDE90801DDE90A23FEF7A3FB06
:101D0000CDE90C01DDE90E23FEF797FBCDE91001CB
:101D1000FEF7DFFC10490860FEF7CEFF0F4802789F
:101D20000F4801784FF4612005F03AFC02F0B2F858
:101D3000F021072003F092F94FF4FA7004F0F4FD5B
:101D400003F09AF913B000BD7C0000208000002051
:101D50006C0000207800002070000020350000207A
:101D6000340000202DE9F04F87B0944840790028D6
:101D70003CD004F017FE92480078012806D00228D3
:101D800011D003280ED004282CD12AE08D48B0F9B8
:101D90000000002805DD8B480088401E00B28949FC
:101DA000088000BF00BF8848B0F90000032803DBAB
:101DB00003208549088005E083480088401C00B264
:101DC0008149088020218148FFF72CFB20B9202180
:101DD0007E48FFF732FB03E020217C48FFF72BFB16
:101DE00000E000BF00BF00207449487173480079CB
:101DF00000283DD0FEF758FE71490870084600786B
:101E0000012806D002281BD0032818D004282BD183
:101E100019E005F05BF988B120216D48FFF702FB5E
:101E200020B920216A48FFF708FB03E02021684819
:101E3000FFF701FB674800786249088000BF00BFD8
:101E400005F068FA10E005F041F920216048FFF73D
:101E5000E9FA20B920215E48FFF7EFFA03E02021DC
:101E60005B48FFF7E8FA00BF00BF00205349087144
:101E70005248C07800284FD001F014FF564800782F
:101E8000401C554908704E480078012806D00228A9
:101E90002DD003282CD004283AD131E049480088BD
:101EA000C0B101F093FDA8B14C48007890B14A4808
:101EB000007805280EDC4A480068FEF7C4FB84B2AF
:101EC0000A20009047480379827801882046FFF76E
:101ED00033F90BE0404800780F2802DB00203E4930
:101EE0000870002001F0F6FC01F0CAFA00BF00BF44
:101EF00005F054F804F092FC0A2004F057FD07E0C6
:101F000005F04CF804F08AFC0A2004F04FFD00BFF5
:101F100000BF00202949C87028488078F0B32848BD
:101F20000078012808D0022805D0032802D0042810
:101F30003CD102E000BF00BF00BF2349B1F900104F
:101F4000C1F10300FEF76EFB07460022264BFEF7A9
:101F5000D3F90546FEF7BDFB04462449B1F9040058
:101F6000FEF752FB81462149B1F90200FEF74CFB16
:101F700082461E49B1F90000FEF746FB8346CDE9D3
:101F800003A9059402901A48806819494968184DB8
:101F9000CDE900102B68174DAA6800E00AE06968D7
:101FA000286800F087F8FEF787FE00BF00BF00201A
:101FB0000249887007B0BDE8F08F00005A00002089
:101FC000550000206200002060000020000C01404D
:101FD000001801405400002064000020560000203A
:101FE000840000204E00002000000C40540100201E
:101FF000E80000200C0100202DE9F04104462046B5
:1020000000F022F80546611CC8B200F01DF8064633
:1020100046EA052007B23846BDE8F08110B5002138
:102020006B2000F030F80421192000F02CF8042176
:102030001A2000F028F800211B2000F024F80121CC
:102040001C2000F020F810BD70B50446FFF7F2FA2E
:10205000D020FFF7B7FAFFF731FB2046FFF7B2FABF
:10206000FFF72CFBFFF70AFBFFF7E4FAD120FFF79D
:10207000A9FAFFF723FB0020FFF774FA0546FFF7E4
:10208000FDFA284670BD70B505460C46FFF7D2FA3A
:10209000D020FFF797FAFFF711FB2846FFF792FAD7
:1020A000FFF70CFB2046FFF78DFAFFF707FBFFF762
:1020B000E5FA70BD0FB5B3B000213A98FEF726FBE4
:1020C00015D100213B98FEF721FB10D100213C984F
:1020D000FEF71CFB0BD1DDE938123D98CDE900126B
:1020E000029033A80FC800F0F9FE37B000BDFE48DB
:1020F00035990068FEF790F80E90FC483499006816
:10210000FEF78AF80C90FA48006880F000400A90C8
:102110003399FEF781F80B900C99FEF777F80D9044
:102120000E99FEF773F84FF07C510F90FEF774F89C
:102130002D90ED4834990068FEF76EF80E90EB484C
:1021400035990068FEF768F80C90EA480168339802
:10215000FEF762F80B900C99FEF706F80D900E99B9
:10216000FEF754F84FF07C510F90FEF755F82C9085
:10217000DD4801683398FEF74FF80E90DC4835993A
:102180000068FEF749F80C90DA4834990068FEF7C9
:1021900043F80B900C99FEF739F80D900E99FDF766
:1021A000E3FF4FF07C510F90FEF736F82B90CF48AD
:1021B00001683398FEF730F80E90CD4834990068E6
:1021C000FEF72AF80C90CB4835990068FEF724F802
:1021D0000B900C99FDF7C8FF0D900E99FEF716F8BD
:1021E0004FF07C510F90FEF717F82A900021369897
:1021F000FEF78CFA09D100213898FEF787FA04D14E
:1022000000213998FEF782FA7ED039990846FEF708
:1022100003F80E9038990846FDF7FEFF0C903699AA
:102220000846FDF7F9FF0B900C99FDF79DFF0D9007
:102230000E99FDF799FF0F9004F0D2FC329032997D
:102240003698FDF7E9FF369032993898FDF7E4FFAC
:10225000389032993998FDF7DFFF39903C9908465C
:10226000FDF7DAFF0E903B990846FDF7D5FF0C907D
:102270003A990846FDF7D0FF0B900C99FDF774FFD3
:102280000D900E99FDF770FF0F9004F0A9FC3290AD
:1022900032993A98FDF7C0FF3A9032993B98FDF792
:1022A000BBFF3B9032993C98FDF7B6FF3C909148BC
:1022B00001684FF08040FDF7AFFF0F903A99FDF7AE
:1022C000ABFF27908B4801684FF08040FDF7A4FFDB
:1022D0000F903B99FDF7A0FF2690864801684FF0CC
:1022E0008040FDF799FF0F903C99FDF795FF2590F1
:1022F0007F4801684FF08040FDF78EFF0F903A99BC
:10230000FDF78AFF249000E0FEE37A4801684FF071
:102310008040FDF781FF1F90754801684FF08040B5
:10232000FDF77AFF1E90714801684FF08040FDF77D
:1023300073FF1D906C4801684FF08040FDF76CFF03
:102340001C906C4801684FF08040FDF765FF0F90CE
:10235000664801680F98FDF75FFF1B9063480168AE
:102360004FF08040FDF758FF0F905F4801680F98CD
:10237000FDF752FF1A905F4801680068FDF74CFFB7
:1023800019905B4801685B480068FDF745FF1890AD
:102390005648016857480068FDF73EFF17905248BD
:1023A000016854480068FDF737FF169050480168EF
:1023B0000068FDF731FF15904C4801684C480068F3
:1023C000FDF72AFF14904848016849480068FDF766
:1023D00023FF1390454801680068FDF71DFF129028
:1023E0004148016841480068FDF716FF11903E48DA
:1023F00001680068FDF710FF109010993A98FDF7FA
:102400000BFF0F9012993A98FDF706FF0D903C993B
:102410001E98FDF701FF0990334801680998FDF700
:10242000FBFE0B903B991E98FDF7F6FE07902F4898
:1024300001680798FDF7F0FE099015993A98FDF7A5
:10244000EBFE0790294801682598FDF7E5FE059009
:10245000254801682698FDF7DFFE039019993A9800
:10246000FDF7DAFE02900399FDF7D0FE049005997E
:10247000FDF77AFE06900799FDF776FE0890099918
:10248000FDF772FE0A900B99FDF76EFE0C900D9908
:10249000FDF7BCFE0E900F99FDF7B8FE299010993C
:1024A0003B98FDF7B9FE0F903C991D98FDF7B4FEDF
:1024B0000B900D4801680B98FDF7AEFE0D90129938
:1024C0003B98FDF7A9FE0B9015993B98FDF7A4FEEC
:1024D0000990064801682498FDF79EFE079004487D
:1024E0000168259808E000007400002070000020BA
:1024F0006C00002068000020FDF78EFE0590199901
:102500003B98FDF789FE0390FE4801682798FDF788
:1025100083FE02900399FDF727FE04900599FDF7CD
:1025200075FE06900799FDF71FFE08900999FDF7C3
:102530006DFE0A900B99FDF717FE0C900D99FDF7B3
:1025400013FE0E900F99FDF761FE2890289908461A
:10255000FDF762FE0A9029990846FDF75DFE099095
:102560000A99FDF701FE0B90FEF7A0F8CDE90C01EA
:1025700004F0AAFECDE90E01FEF7ABF82390109906
:102580003C98FDF749FE0F9012993C98FDF744FEE8
:102590000D903B991D98FDF73FFE0990D9480168C1
:1025A0000998FDF739FE0B9015993C98FDF734FE1C
:1025B0000990D44801682498FDF72EFE07901999D8
:1025C0003C98FDF729FE0590CF4801682698FDF755
:1025D00023FE0390279880F000400190CB480168CB
:1025E0000198FDF719FE02900399FDF7BDFD0490D7
:1025F0000599FDF7B9FD06900799FDF7B5FD08901F
:102600000999FDF703FE0A900B99FDF7ADFD0C90BB
:102610000D99FDF7FBFD0E900F99FDF7A5FD22909A
:102620004FF080402399FDF7F7FD21904FF0804057
:102630002299FDF7F1FD20904FF07C501599FDF7A0
:10264000E5FD07901299FDF7E1FD08902299FDF74D
:10265000E3FD0A9013991798FDF786FD08902399DA
:10266000FDF7DAFD09900A99FDF77EFD0B903C9984
:10267000FDF7CCFD0D90A54801682398FDF7CCFD32
:102680000C900D99FDF7C8FD0F9011991898FDF762
:102690006BFD06902299FDF7BFFD089016991498DE
:1026A000FDF7B4FD06902399FDF7B6FD0790089954
:1026B000FDF75AFD09903B99FDF7A8FD0B90924854
:1026C00001682298FDF7A8FD0990239880F000404A
:1026D00007908C4801680798FDF79EFD08900999BE
:1026E000FDF742FD0A900B99FDF796FD0D901799A5
:1026F0001398FDF78BFD04902299FDF78DFD069050
:102700004FF07C501299FDF781FD03901099FDF771
:102710007DFD04902399FDF77FFD05900699FDF757
:1027200023FD07903A99FDF771FD099077480168FC
:102730002298FDF771FD08900999FDF76DFD0B904A
:102740004FF080401899FDF767FD05901A99FDF745
:102750000BFD06903899FDF759FD07901E99FDF77E
:102760005BFD09904FF080401399FDF755FD0490F3
:102770001B99FDF74BFD05903699FDF747FD079036
:102780001D9880F0004006900799FDF745FD0890E0
:102790000999FDF7E9FC0A900B99FDF737FD0C90BC
:1027A0000D99FDF7E1FC0E900F99FDF7DDFC3190DE
:1027B0004FF07C501599FDF729FD07901299FDF710
:1027C00025FD08902299FDF727FD0A901399179887
:1027D000FDF7CAFC08902399FDF71EFD09900A99A0
:1027E000FDF7C2FC0B903C99FDF710FD0D9046489B
:1027F00001682098FDF710FD0B904248016823986E
:10280000FDF70AFD0A900B99FDF700FD0C900D995C
:10281000FDF702FD0F9011991898FDF7A5FC0690A1
:102820002299FDF7F9FC089016991498FDF7EEFC33
:1028300006902399FDF7F0FC07900899FDF794FCAA
:1028400009903B99FDF7E2FC0B9031480168229812
:10285000FDF7E2FC09902D4801682398FDF7DCFCA8
:1028600008900999FDF780FC0A900B99FDF7D4FCBC
:102870000D9017991398FDF7C9FC04902299FDF764
:10288000CBFC06904FF07C501299FDF7BFFC0390F3
:102890001099FDF7BBFC04902399FDF7BDFC059052
:1028A0000699FDF761FC07903A99FDF7AFFC099096
:1028B000144801682298FDF7AFFC08900999FDF7CC
:1028C000ABFC0B904FF080401299FDF7A5FC0490F3
:1028D0004FF080401599FDF79FFC4FF07E5102901C
:1028E000FDF797FC03900499FDF790FC059039994A
:1028F000FDF78CFC0790044801684FF08140FDF71C
:102900008BFC07E0740000206C00002070000020A9
:102910006800002006900799FDF77EFC09904FF0B3
:1029200080401899FDF778FC03901A99FDF71CFC7C
:1029300004903899FDF76AFC05901F99FDF76CFC2F
:1029400007904FF080401399FDF766FC03901B99A8
:10295000FDF75CFC04903699FDF758FC05901C9936
:10296000FDF75AFC06900799FDF7FEFB08900999C0
:10297000FDF74CFC0A900B99FDF7F6FB0C900D99B6
:10298000FDF7F2FB0E900F99FDF7EEFB30904FF044
:102990007C501599FDF73AFC07901299FDF736FC2B
:1029A00008902299FDF738FC0A9013991798FDF7C3
:1029B000DBFB08902399FDF72FFC09900A99FDF79E
:1029C000D3FB0B903C99FDF721FC0D90FE4801686C
:1029D0002098FDF721FC0B90FC4801682398FDF737
:1029E0001BFC0A900B99FDF711FC0C900D99FDF75B
:1029F00013FC0F9011991898FDF7B6FB06902299D9
:102A0000FDF70AFC089016991498FDF7FFFB069055
:102A10002399FDF701FC07900899FDF7A5FB0990A4
:102A20003B99FDF7F3FB0B90E94801682298FDF70D
:102A3000F3FB0990E74801682398FDF7EDFB089048
:102A40000999FDF791FB0A900B99FDF7E5FB0D90B5
:102A500017991398FDF7DAFB04902299FDF7DCFB38
:102A600006904FF07C501299FDF7D0FB039010991F
:102A7000FDF7CCFB04902399FDF7CEFB059006995A
:102A8000FDF772FB07903A99FDF7C0FB0990CF481C
:102A900001682298FDF7C0FB0790219880F0004064
:102AA0000590C94801680598FDF7B6FB069007999F
:102AB000FDF7ACFB08900999FDF7AEFB0B904FF0CA
:102AC00080401299FDF7A8FB04904FF080401599C3
:102AD000FDF7A2FB4FF07E510290FDF79AFB0390A9
:102AE0000499FDF793FB05903999FDF78FFB07904B
:102AF000B54801684FF08140FDF78EFB06900799BD
:102B0000FDF78AFB099000E05CE14FF080401899E6
:102B1000FDF782FB03901A99FDF726FB0490389984
:102B2000FDF774FB05901C99FDF776FB07904FF0BD
:102B300080401399FDF770FB02901B99FDF766FB2F
:102B400003903699FDF762FB05901F9880F00040D6
:102B500004900599FDF760FB06900799FDF704FBCB
:102B600008900999FDF752FB0A900B99FDF7FCFAC2
:102B70000C900D99FDF7F8FA0E900F99FDF7F4FA05
:102B80002F904FF07C501599FDF740FB079012995C
:102B9000FDF73CFB08902299FDF73EFB0A90139944
:102BA0001798FDF7E1FA08902399FDF735FB099096
:102BB0000A99FDF7D9FA0B903C99FDF727FB0D9088
:102BC000844801682398FDF727FB0C900D99FDF7C9
:102BD00023FB0F9011991898FDF7C6FA06902299D9
:102BE000FDF71AFB089016991498FDF70FFB069055
:102BF0002399FDF711FB07900899FDF7B5FA0990A5
:102C00003B99FDF703FB0B906F4801682298FDF795
:102C100003FB0990239880F0004007906B480168FF
:102C20000798FDF7F9FA08900999FDF79DFA0A90BF
:102C30000B99FDF7F1FA0D9017991398FDF7E6FA45
:102C400004902299FDF7E8FA06904FF07C50129913
:102C5000FDF7DCFA03901099FDF7D8FA0490239958
:102C6000FDF7DAFA05900699FDF77EFA07903A9992
:102C7000FDF7CCFA0990574801682298FDF7CCFA85
:102C80000790219880F00040059051480168059810
:102C9000FDF7C2FA06900799FDF766FA08900999C0
:102CA000FDF7BAFA0B904FF080401899FDF7B4FA8F
:102CB00005901A99FDF758FA06903899FDF7A6FA8B
:102CC00007901D99FDF7A8FA09904FF080401399DD
:102CD000FDF7A2FA05901B99FDF798FA0690369930
:102CE000FDF794FA07901E99FDF796FA0890099956
:102CF000FDF73AFA0A900B99FDF736FA0C900D9908
:102D0000FDF732FA0E900F99FDF72EFA2E902E99BC
:102D10000846FDF781FA0E902F990846FDF77CFAD8
:102D20000C9030990846FDF777FA0A9031990846D9
:102D3000FDF772FA09900A99FDF716FA0B900C99B3
:102D4000FDF712FA0D900E99FDF70EFA0F9003F0B1
:102D500047FF3290DDE93101FDF75EFA319032999B
:102D60003098FDF759FA309032992F98FDF754FAC0
:102D70002F9032992E98FDF74FFA2E9031993D9869
:102D8000FDF74AFA0F902D99FDF743FA2D903099EF
:102D90003D98FDF741FA0F902C99FDF73AFA2C90E7
:102DA0002F993D98FDF738FA0F902B99FDF731FADE
:102DB0002B902E993D98FDF72FFA0F902A99FDF749
:102DC00028FA2A90044909E07000002068000020D9
:102DD000740000206C0000200AD7A33C2D98FDF75A
:102DE0001BFA0F90384801680F98FDF7BDF9364976
:102DF000086036492C98FDF70FFA0F9034480168A7
:102E00000F98FDF7B1F93249086030492B98FDF76A
:102E100003FA0F902F4801680F98FDF7A5F92D4987
:102E200008602A492A98FDF7F7F90F902A480168A7
:102E30000F98FDF799F9284908600846016800686D
:102E4000FDF7EAF90E90234801680068FDF7E4F900
:102E50000C901F4801680068FDF7DEF90A901A48D7
:102E600001680068FDF7D8F909900A99FDF77CF927
:102E70000B900C99FDF778F90D900E99FDF774F908
:102E80000F9003F0ADFE32900F4832990068FDF7C5
:102E9000C3F90D4908600E4832990068FDF7BCF986
:102EA0000B4908600B4832990068FDF7B5F90949EC
:102EB0000860094832990068FDF7AEF906490860D4
:102EC00000BFFFF712B90000680000200AD7A33C3A
:102ED0006C00002070000020740000200FB5A5B029
:102EE000FE4827990068FDF797F90D90FC48269950
:102EF0000068FDF791F90B90FA48006880F00040F7
:102F000009902599FDF788F90A900B99FDF77EF94C
:102F10000C900D99FDF77AF94FF07C510E90FDF76A
:102F20007BF91F90ED4826990068FDF775F90D9023
:102F3000EB4827990068FDF76FF90B90EA480168A4
:102F40002598FDF769F90A900B99FDF70DF90C909A
:102F50000D99FDF75BF94FF07C510E90FDF75CF990
:102F60001E90DE4801682598FDF756F90D90DD4862
:102F700027990068FDF750F90B90DB482699006807
:102F8000FDF74AF90A900B99FDF740F90C900D995D
:102F9000FDF7EAF84FF07C510E90FDF73DF91D90DA
:102FA000CF4801682598FDF737F90D90CD4826994F
:102FB0000068FDF731F90B90CB4827990068FDF7C1
:102FC0002BF90A900B99FDF7CFF80C900D99FDF7AE
:102FD0001DF94FF07C510E90FDF71EF91C90002159
:102FE0002898FDF793FB09D100212A98FDF78EFB65
:102FF00004D100212B98FDF789FB7DD02B99084641
:10300000FDF70AF90D902A990846FDF705F90B908E
:1030100028990846FDF700F90A900B99FDF7A4F8E6
:103020000C900D99FDF7A0F80E9003F0D9FD2490B7
:1030300024992898FDF7F0F8289024992A98FDF70C
:10304000EBF82A9024992B98FDF7E6F82B90A648E8
:1030500001684FF08040FDF7DFF81B90A148016840
:103060004FF08040FDF7D8F81A909D4801684FF066
:103070008040FDF7D1F81990984801684FF08040E2
:10308000FDF7CAF81890984801684FF08140FDF7A5
:10309000C3F81790934801684FF08140FDF7BCF8E2
:1030A00016908F4801684FF08140FDF7B5F81590F4
:1030B0008C4801684FF08240FDF7AEF814908848C4
:1030C00001684FF08240FDF7A7F813908648016829
:1030D0000068FDF7A1F81290824801680068FDF7CA
:1030E0009BF811907E4801680068FDF795F81090F4
:1030F0007A480168006800E040E1FDF78DF80F9024
:103100002A991A98FDF788F80E9011991798FDF7EB
:1031100083F80C9028991998FDF77EF80A90109979
:103120001798FDF779F809900A99FDF71DF80B90AB
:103130000C99FDF719F80D900E99FDF767F823909B
:103140002B991698FDF768F80E9010991498FDF7D2
:1031500063F80C9011991498FDF75EF80A902A997B
:103160001B98FDF759F807904FF081401299FDF731
:1031700053F803905B4801680398FDF74DF80590FC
:1031800028991898FDF748F803900F991698FDF7BD
:1031900043F802900399FDF739F804900599FCF77C
:1031A000E3FF06900799FDF731F808901699FDF7AF
:1031B0002DF809900A99FCF7D7FF0B900C99FCF7B2
:1031C000D3FF0D900E99FCF7CFFF22902B99159805
:1031D000FDF722F80E9010991398FDF71DF80C904A
:1031E00011991398FDF718F80A902A991898FDF785
:1031F00013F807900F991598FDF70EF80590289988
:103200001B98FDF709F803904FF081401299FDF7E4
:1032100003F80190324801680198FCF7FDFF029025
:103220000399FCF7A1FF04900599FCF79DFF069018
:103230000799FCF7EBFF08901599FCF7E7FF099059
:103240000A99FCF791FF0B900C99FCF78DFF0D90FC
:103250000E99FCF789FF21902A991998FCF7DCFF59
:103260000E904FF081401099FCF7D6FF0A901B4852
:1032700001680A98FCF7D0FF0C9028991A98FCF77F
:10328000CBFF0A904FF081401199FCF7C5FF0890E1
:10329000124801680898FCF7BFFF09900A99FCF7EB
:1032A000B5FF0B900C99FCF75FFF0D900E99FCF7A2
:1032B000ADFF209020990846FCF7AEFF0D902199B4
:1032C0000846FCF7A9FF0B9022990846FCF7A4FFDB
:1032D000099023990846FCF79FFF07E0740000203F
:1032E000700000206C000020680000200890099900
:1032F000FCF73AFF0A900B99FCF736FF0C900D99FA
:10330000FCF732FF0E9003F06BFC2490DDE9230103
:10331000FCF782FF239024992298FCF77DFF2290EE
:1033200024992198FCF778FF219024992098FCF7A4
:1033300073FF209023992C98FCF76EFF0E901F9935
:10334000FCF767FF1F9022992C98FCF765FF0E9001
:103350001E99FCF75EFF1E9021992C98FCF75CFFEC
:103360000E901D99FCF755FF1D9020992C98FCF7A5
:1033700053FF0E901C99FCF74CFF1C903A491F9884
:10338000FCF74AFF0E90394801680E98FCF7ECFEF6
:103390003649086034491E98FCF73EFF0E903448C9
:1033A00001680E98FCF7E0FE314908602E491D982F
:1033B000FCF732FF0E902F4801680E98FCF7D4FE00
:1033C0002C49086028491C98FCF726FF0E902A48D3
:1033D00001680E98FCF7C8FE274908600846016896
:1033E0000068FCF719FF0D90224801680068FCF79F
:1033F00013FF0B901E4801680068FCF70DFF099051
:103400001A4801680068FCF707FF08900999FCF763
:10341000ABFE0A900B99FCF7A7FE0C900D99FCF7F8
:10342000A3FE0E9003F0DCFB249010482499006862
:10343000FCF7F2FE0D4908600D4824990068FCF77E
:10344000EBFE0B4908600B4824990068FCF7E4FE8A
:1034500008490860084824990068FCF7DDFE064921
:10346000086029B000BD00000AD7A33C6800002016
:103470006C000020700000207400002000BFFEE7F8
:1034800010B55A21034801F07FFA5A21014801F092
:103490007DFA10BD003401402DE9F04105460E468D
:1034A000B4244E4806600027006800280BDB002D7E
:1034B00009DD4A480068854201DC284601E04748AA
:1034C0000068074634E04548006800280DDB002D01
:1034D0000BDA684241490968884201DC284602E06B
:1034E0003E4800684042074622E03C480068002809
:1034F0000DDC002D0BDD394800684042854201DCBF
:10350000284602E0354800684042074610E033484C
:10351000006800280CDC002D0ADA68422F4909688F
:103520004942884201DC284601E02C4800680746F1
:103530002A48006810B9FFF7A3FF4DE0274800684C
:10354000002849DDBFB9A04604EBD8704010083808
:10355000224A1288801A81B2214801F015FA04EB40
:10356000D870401009381D4A1288801A81B21C4850
:1035700001F00CFA30E0002F17DDA04604EBD87004
:1035800040100A30154A1288104481B2144801F0E4
:10359000FBF904EBD87040100938104A1288801AE1
:1035A00081B20F4801F0F2F916E0A04604EBD870A2
:1035B00040100938094A1288801A81B2084801F07F
:1035C000E3F904EBD87040100A30044A1288104422
:1035D00081B2034801F0DAF9BDE8F0813000002043
:1035E0000034014010B540F267114FF4C87000F08C
:1035F000EDFE10BD7047000070B5002100230F22C2
:10360000C47804B3154C246804F4E064C4F5E064A1
:10361000210AC1F10403CA40447804FA03F1847812
:103620001440214309010E4C0678A155047804F09A
:103630001F050124AC4005786D11AD0005F1E025B2
:10364000C5F8004109E0047804F01F050124AC40EE
:10365000044D0678761145F8264070BD0CED00E06B
:1036600000E400E080E100E002490143024A116009
:10367000704700000000FA050CED00E078B5044644
:103680002646002504E0684600F0E0F8681CC5B254
:10369000B542F8DB78BD704729B1064A526902434A
:1036A000044B5A6104E0034A52698243014B5A6158
:1036B000704700000010024029B1064AD269024357
:1036C000044BDA6104E0034AD2698243014BDA61B8
:1036D000704700000010024029B1064A12690243F7
:1036E000044B1A6104E0034A12698243014B1A61D8
:1036F000704700000010024029B1064A9269024357
:10370000044B9A6104E0034A92698243014B9A6137
:10371000704700000010024029B1064AD2680243F7
:10372000044BDA6004E0034AD2688243014BDA605A
:10373000704700000010024030B500210022002434
:1037400000232D4D6D6805F00C0121B1042905D031
:10375000082923D105E0294D056022E0274D0560A9
:103760001FE0254D6D6805F47012234D6D6805F45A
:103770008034022505EB92421CB9214D554305606A
:103780000BE01D4D6D6805F400351DB11C4D554312
:10379000056002E0194D5543056002E0174D0560D4
:1037A00000BF00BF144D6D6805F0F0010909154D0B
:1037B0006B5C0568DD4045600F4D6D6805F4E061A8
:1037C000090A104D6B5C4568DD4085600A4D6D68E7
:1037D00005F46051C90A0B4D6B5C4568DD40C5605E
:1037E000054D6D6805F44041890B074D6B5CC5685C
:1037F000B5FBF3F5056130BD0010024000127A0000
:1038000000093D00000000201000002001460D4886
:10381000808808B9002070470A480288801D805CB3
:10382000087008480088401C074A128890FBF2F391
:1038300002FB1300034A108010468088401E9080CF
:103840000120E8E7080300206600002001460D483B
:10385000808808B9002070470A480288801D805C73
:10386000087008480088401C074A128890FBF2F351
:1038700002FB1300034A108010468088401E90808F
:103880000120E8E76C0100206600002008B54FF435
:103890000060ADF8000048208DF80300694602483A
:1038A000FDF7ECFC08BD00000010014008B54FF426
:1038B0000060ADF8000010208DF8030003208DF8A3
:1038C000020069460148FDF7D9FC08BD001001401F
:1038D00070470000322190FBF1F1014A11607047FE
:1038E0002C00002010B500F001F810BD0CB5002030
:1038F000019000903348006840F4803031490860FE
:1039000000BF3048006800F4003000900198401C6F
:103910000190009818B90198B0F5A06FF1D129482D
:10392000006800F4003010B10120009001E0002098
:1039300000900098012843D12348006840F010000F
:10394000214908600846006820F003000860084626
:10395000006840F0020008601A4840681949486051
:103960000846406848600846406840F48060486007
:103970000846406820F47C1048600846406840F4DF
:10398000E81048600846006840F08070086000BF9A
:103990000C48006800F000700028F9D00948406821
:1039A00020F00300074948600846406840F00200E4
:1039B000486000BF0348406800F00C000828F9D1B7
:1039C0000CBD0000001002400020024001480078B9
:1039D00070470000B8000020042808D14FF0E02113
:1039E000096941F004014FF0E022116107E04FF056
:1039F000E021096921F004014FF0E02211617047D4
:103A00007047000010B51348006840F001001149EC
:103A1000086008464068104908400E49486008465A
:103A200000680E4908400B4908600846006820F409
:103A3000802008600846406820F4FE0048604FF48B
:103A40001F008860FFF74EFF4FF0006004490860D8
:103A500010BD0000001002400000FFF8FFFFF6FE5E
:103A600008ED00E0F0B50C46154600220021068C5A
:103A70004FF6FE773E400684028B018C4FF60C76A3
:103A800032407E1C06EA03162E433243104EB042EB
:103A90000ED0104EB0420BD0B0F1804F08D00E4E79
:103AA000B04205D00D4EB04202D00D4EB04206D10C
:103AB0004FF6FD76314044F00106314305E04FF604
:103AC000F576314044F00106314302830184F0BDB4
:103AD000002C014000340140000400400008004078
:103AE000000C0040F0B50C461546002200210026CF
:103AF000078C4FF6EF7C07EA0C070784028B018CDA
:103B00004FF6FF7707EA041640F6FF473A404FF6B4
:103B1000FF7707EA03373A434FF6FF7707EA0527AF
:103B20003A43114FB8420ED0104FB8420BD0B0F10B
:103B3000804F08D00E4FB84205D00E4FB84202D089
:103B40000D4FB84206D14FF6DF77394046F01007E7
:103B5000394305E04FF65F77394044F010073943A9
:103B600002830184F0BD0000002C014000340140BC
:103B70000004004000080040000C0040F0B50C4676
:103B80001546002200210026078C4FF6FF6C07EA3D
:103B90000C070784828B018C4FF6FF7707EA042617
:103BA0004FF60C773A404FF6FF7707EA03172F439B
:103BB0003A43114FB8420ED0104FB8420BD0B0F17B
:103BC000804F08D00E4FB84205D00E4FB84202D0F9
:103BD0000D4FB84206D14FF6FF57394046F4807773
:103BE000394305E04FF2FF57394044F480773943B9
:103BF00082830184F0BD0000002C014000340140AC
:103C00000004004000080040000C0040F0B50C46E5
:103C10001546002200210026078C4EF6FF7C07EA9D
:103C20000C070784828B018C4FF6FF7707EA043676
:103C300040F6FF473A404FF6FF7707EA05273A4339
:103C40004FF6FF7707EA03373A43114FB8420ED0D9
:103C5000104FB8420BD0B0F1804F08D00E4FB84291
:103C600005D00E4FB84202D00D4FB84206D14DF6E6
:103C7000FF77394046F48057394305E047F6FF5750
:103C8000394044F48057394382830184F0BD0000F9
:103C9000002C0140003401400004004000080040B6
:103CA000000C004070B5002500216C4800F0FBFBC3
:103CB00000221F21694800F079FD6948008800F45E
:103CC000004008B366480088C0F30D04012574B1B4
:103CD00064480088C0F11401601E00EB800001EB15
:103CE00080006149098808446049086014E05E4822
:103CF00000885C490988884207DB5B48008859498D
:103D00000988401A5949086006E056480088564913
:103D10000988401A554908605548008800F4004059
:103D200008B353480088C0F30D04012574B151480D
:103D30000088C0F11401601E00EB800001EB8000E0
:103D40004D49098808444949486014E04A480088B8
:103D500048490988884207DB47480088454909885F
:103D6000401A4249486006E04248008842490988B2
:103D7000401A3E4948604148008800F4004008B3BA
:103D80003E480088C0F30D04012574B13C4800880A
:103D9000C0F11401601E00EB800001EB8000394986
:103DA000098808443149886014E03648008834495D
:103DB0000988884207DB3348008831490988401A5E
:103DC0002A49886006E02E4800882E490988401A52
:103DD000264988602C48008800F4004008B32A482F
:103DE0000088C0F30D04012574B128480088C0F193
:103DF0001401601E00EB800001EB8000244909885B
:103E000008441A49C86014E0214800881F490988FD
:103E1000884207DB1E4800881C490988401A13495C
:103E2000C86006E01948008819490988401A0F49F6
:103E3000C86000200A4908800D4908800F490880A1
:103E4000114908800121054800F02DFB01221F21A6
:103E5000024800F0ABFC284670BD000000040040A2
:103E600096000020A2000020A4000020D80300201B
:103E7000980000209E000020A00000209A00002052
:103E8000A6000020A80000209C000020AA0000201E
:103E9000AC00002000B589B001210420FFF72CFC04
:103EA00001210820FFF728FC01210220FFF704FC74
:103EB0000020ADF81A00ADF816001320ADF8180078
:103EC0004720ADF8140005A93F4800F08DFD2820DB
:103ED0008DF823004020ADF8200008A93B48FDF7ED
:103EE000CDF98020ADF8200008A93848FDF7C6F9C3
:103EF0000120ADF8200008A93548FDF7BFF90220E0
:103F0000ADF8200008A93248FDF7B8F90020ADF857
:103F10000400ADF80C00ADF80600ADF80A00012071
:103F2000ADF8080001A9284800F0EAFB01220221AF
:103F3000254800F03BFC0420ADF804000020ADF85B
:103F40000C00ADF80600ADF80A000120ADF808003D
:103F500001A91D4800F0D4FB012204211A4800F0F9
:103F600025FC0820ADF8040001A9174800F0C8FBA3
:103F700001220821144800F019FC0C20ADF80400BF
:103F800001A9114800F0BCFB012210210E4800F0ED
:103F90000DFC1D208DF8100002208DF8110000206E
:103FA0008DF8120001208DF8130004A8FFF724FB00
:103FB00001221F21044800F0F9FB0121024800F012
:103FC00072FA09B000BD0000000400400008014082
:103FD000000C014010B50121A74800F080FB00282B
:103FE0007ED0A648008800F40040E0B9A3480088CD
:103FF00000F48040B8B1A1480088C0F30D0043F63A
:10400000FF7188420AD19D48008840F400409B49D6
:1040100008804FF6FF709A49088004E097480088AE
:10402000401C964908809748008800F40040E0B999
:104030009448008800F48040B8B192480088C0F3EA
:104040000D0043F6FF7188420AD18E48008840F483
:1040500000408C4908804FF6FF708B49088004E0CF
:1040600088480088401C874908808848008800F4F8
:104070000040E0B98548008800F48040B8B183482A
:104080000088C0F30D0043F6FF7188420AD17F48D3
:10409000008840F400407D4908804FF6FF707C495D
:1040A000088004E079480088401C784908807948F5
:1040B000008800F4004098B97648008800F48040F9
:1040C00070B174480088C0F30D0043F6FF71884258
:1040D0000CD17048008840F400406E49088000E030
:1040E00009E04FF6FF706C49088004E069480088D9
:1040F000401C6849088001215F4800F0D1F9022185
:104100005D4800F0ECFA48B35C48008800F4804059
:1041100078B1594800F0D6FA5949088057480088C4
:1041200040F40040554908800021534800F094FBBA
:1041300010E0514800F0C6FA5849088000204F4965
:1041400008800846008840F48040088002214A48E0
:1041500000F082FB0221484800F0A2F90421464801
:1041600000F0BDFA48B34748008800F4804078B1B9
:10417000414800F0AAFA444908804248008840F4C7
:1041800000404049088000213B4800F0C9FB10E096
:10419000394800F09AFA42490880002039490880DD
:1041A0000846008840F4804008800221324800F030
:1041B000B7FB0421304800F073F908212E4800F0C5
:1041C0008EFA48B33148008800F4804078B12A481C
:1041D00000F07EFA2E4908802C48008840F4004008
:1041E0002A4908800021244800F0B4FB10E022484E
:1041F00000F06EFA2B490880002024490880084608
:10420000008840F48040088002211B4800F0A2FB97
:104210000821194800F044F91021174800F05FFA0E
:1042200048B31C48008800F4804078B1124800F080
:1042300052FA194908801748008840F4004015498F
:10424000088000210C4800F092FB10E00A4800F0C2
:1042500042FA1549088000200E4908800846008867
:1042600040F4804008800221034800F080FB1021C8
:10427000014800F015F910BD000400409600002030
:10428000A400002098000020A00000209A00002038
:10429000A80000209C000020AC000020A20000200C
:1042A0009E000020A6000020AA00002010B50121D9
:1042B000204800F014FA00283BD01F480088401C1A
:1042C0001D4908800988481CC11700EB91718910AD
:1042D000A0EB810149BB18480088401C142190FBC9
:1042E000F1F201FB1200E8B913480088401C2821B4
:1042F00090FBF1F201FB120088B90F480088401CC6
:10430000C82190FBF1F201FB120028B901200B49F2
:1043100048710020084908800120084908710120DF
:104320000649C8700120054988700121014800F044
:10433000B7F810BD000C0040580000205A000020C3
:104340001FB501210820FFF7B7F91D4800F0C6F896
:104350000020ADF80600ADF80A006420ADF80800B2
:1043600040F60F60ADF8040001A9154800F03CFBD1
:1043700001221146124800F019FA32208DF800008F
:1043800000208DF801008DF8020001208DF8030057
:104390006846FFF731F90121094800F084F801214E
:1043A000074800F071F80121054800F07CF8012071
:1043B00004490880002004494871C87088701FBDF6
:1043C000000C0040580000205A00002030B589B091
:1043D00004460D4601214803FFF78EF90121102004
:1043E000FFF78AF918208DF8230003208DF82200AA
:1043F0004020ADF8200008A92148FCF73FFF8020AD
:10440000ADF8200008A91E48FCF738FF1D4800F051
:1044100065F80020ADF81600ADF81A00ADF81840A8
:10442000ADF8145005A9174800F0DEFA0020ADF8E9
:104430000C006020ADF804000120ADF80600ADF8D6
:104440000A4001A90F4800F0BBF901A90D4800F08E
:1044500015FA01210B4800F032F80821094800F054
:1044600004FA0821074800F068FA0121054800F025
:104470000BF80121034800F016F809B030BD000028
:10448000001001400034014021B1028842F0800256
:10449000028004E002884FF67F731A400280704762
:1044A000CA430282704721B1028842F001020280B1
:1044B00004E002884FF6FE731A400280704731B163
:1044C000B0F8442042F40042A0F8442005E0B0F8DF
:1044D0004420C2F30E02A0F84420704710B50446F1
:1044E0006848844208D10121C014FFF715F9002162
:1044F000E014FFF711F9C4E0B4F1804F08D10121B5
:104500000846FFF7E9F800210120FFF7E5F8B8E0D9
:104510005D48844208D101210220FFF7DDF8002127
:104520000220FFF7D9F8ACE05848844208D10121B5
:104530000420FFF7D1F800210420FFF7CDF8A0E018
:104540005348844208D101210820FFF7C5F8002113
:104550000820FFF7C1F894E04E48844208D10121B9
:104560001020FFF7B9F800211020FFF7B5F888E018
:104570004948844208D101212020FFF7ADF80021ED
:104580002020FFF7A9F87CE04448844208D10121AB
:104590004014FFF7C1F800216014FFF7BDF870E088
:1045A0003F48844209D10121C804FFF7B5F8002132
:1045B0004FF40020FFF7B0F863E03A48844209D195
:1045C00001210805FFF7A8F800214FF48010FFF73C
:1045D000A3F856E03448844209D101214805FFF789
:1045E0009BF800214FF40010FFF796F849E02F48A0
:1045F000844208D101214020FFF76EF800214020BD
:10460000FFF76AF83DE02A48844208D10121802062
:10461000FFF762F800218020FFF75EF831E02548BF
:10462000844208D101218015FFF756F80021A0151A
:10463000FFF752F825E02048844209D101210804FF
:10464000FFF76AF800214FF48030FFF765F818E0B3
:104650001A48844209D101214804FFF75DF800217E
:104660004FF40030FFF758F80BE01548844208D1AA
:1046700001218804FFF750F800214FF48020FFF754
:104680004BF810BD002C0140000400400008004021
:10469000000C0040001000400014004000340140B5
:1046A000004C0140005001400054014000180040FF
:1046B000001C004000200040004001400044014038
:1046C000004801400146888E70470146088F7047B8
:1046D0000146888F70470146B1F84000704730B5F9
:1046E0000246002000230024158A05EA010395896B
:1046F00005EA010413B10CB1012000E0002030BD37
:1047000070B505460C46244885420ED023488542A4
:104710000BD0B5F1804F08D02148854205D0214803
:10472000854202D02048854200D100E000BF2088A9
:1047300050B92389A28861882846FFF793F9E18858
:10474000284600F025F925E0208804280AD123898D
:10475000A28861882846FFF7C5F9E188284600F05D
:1047600020F917E0208808280AD12389A2886188C7
:104770002846FFF703FAE188284600F01FF909E010
:104780002389A28861882846FFF740FAE1882846F5
:1047900000F01DF970BD0000002C01400034014004
:1047A0000004004000080040000C00401AB183895A
:1047B0000B43838102E083898B4383817047000030
:1047C00070B5002400220023058C4FF6FE7635409C
:1047D0000584028C8388048B4FF68F752C40B51EA0
:1047E0002C400D882C43751E2A400D892A434D8884
:1047F0002A43144DA8420BD0134DA84208D0134DA4
:10480000A84205D0124DA84202D0124DA84213D1A1
:104810004FF6F7752A404D892A434FF6FB752A401B
:104820008D882A434FF6FF652B404FF6FF552B40EE
:104830008D892B43CD892B4383800483CD88858646
:10484000028470BD002C0140003401400040014052
:1048500000440140004801400A460021018C4FF607
:10486000FD7319401143018470470A460021018BF2
:104870004FF6F773194011430183704770B5002458
:1048800000220023058C4FF6EF7635400584028C1C
:104890008388048B48F6FF752C404FF6FF452C406B
:1048A0000D884FF6FF7606EA05252C434FF6DF7597
:1048B0002A400D8906EA05152A434D8806EA0515A2
:1048C0002A43154DA84202D0144DA8421DD14FF6DF
:1048D0007F752A404D894FF6FF7606EA05152A4373
:1048E0004FF6BF752A408D8806EA05152A434FF614
:1048F000FF352B404FF2FF752B408D8906EA850569
:104900002B43CD8906EA85052B4383800483CD881C
:104910000587028470BD0000002C01400034014076
:104920000A460021018C4FF6DF7319404FF6FF73E2
:1049300003EA02131943018470470A460021018BE0
:104940004FF2FF7319404FF6FF7303EA0223194336
:10495000018370470A460021018C4FF6FF5319402E
:104960004FF6FF7303EA02231943018470470A4696
:104970000021018C4DF6FF7319404FF6FF7303EAD7
:10498000023319430184704781867047018770475D
:10499000028B4FF6F3731A400283028B0A430283A1
:1049A0007047028B4FF2FF331A400283028B4FF69F
:1049B000FF7303EA01231A4302837047828B4FF689
:1049C000F3731A408283828B0A4382837047828BFF
:1049D0004FF2FF331A408283828B4FF6FF7303EA54
:1049E00001231A4382837047002202881D4B98429C
:1049F0000ED01D4B98420BD0B0F1804F08D01B4B0E
:104A0000984205D01A4B984202D01A4B984204D1D2
:104A10004FF68F731A404B881A43174B984207D0B2
:104A2000164B984204D04FF6FF431A40CB881A43E6
:104A300002808B8883850B8803850A4B98420BD0B4
:104A4000094B984208D00E4B984205D00D4B984226
:104A500002D00D4B984201D10B7A03860123838249
:104A600070470000002C0140003401400004004069
:104A700000080040000C00400010004000140040FE
:104A800000400140004401400048014070B500254D
:104A90000A20FCF7E5FC1025002408E00649085D23
:104AA000FCF7DEFC08B9002070BD601CC4B2AC424B
:104AB000F4DB0120F8E70000BA77000870B50025A4
:104AC0000A20FCF7CDFC002070B92C25002408E05A
:104AD0000E49085DFCF7C4FC08B9002070BD601CDD
:104AE000C4B2AC42F4DB0EE02C25002408E00849F7
:104AF000085DFCF7B5FC08B90020EFE7601CC4B204
:104B0000AC42F4DB00BF00BF0120E7E78E7700086E
:104B10006277000870B500250A20FCF7A1FC0E257D
:104B2000002408E00649085DFCF79AFC08B900205B
:104B300070BD601CC4B2AC42F4DB0120F8E7000099
:104B40005477000870B5064600250A20FCF788FC5B
:104B5000B6F5165F09D0B6F5E13F16D0B6F5E12FF0
:104B600033D0B6F5612F40D11FE01C25002408E0AA
:104B70001F49085DFCF774FC08B9002070BD601C7B
:104B8000C4B2AC42F4DB0120F8E71C25002408E0A5
:104B90001849085DFCF764FC08B90020EEE7601CCA
:104BA000C4B2AC42F4DB0120E8E71C25002408E095
:104BB0001149085DFCF754FC08B90020DEE7601CD1
:104BC000C4B2AC42F4DB0120D8E71C25002408E085
:104BD0000A49085DFCF744FC08B90020CEE7601CD8
:104BE000C4B2AC42F4DB0120C8E70020C6E70000F5
:104BF000F27600082A770008D67600080E770008BB
:104C000010B5044600210648FCF786F92146044801
:104C1000FCF76CFA01210248FCF77EF910BD000098
:104C20004400024010B540F225510E4800F0F3F860
:104C300058B10C4800F0AAF9C4B2204600F020FA9E
:104C400040F22551074800F066F80821054800F0B9
:104C5000D5F830B1034800F099F90821014800F077
:104C600051F810BD0038014010B540F224412148F0
:104C700000F0D1F888B32048FCF700FA1F490988F2
:104C8000081A1F49898808441D4988801A48FCF77A
:104C9000F5F91A490988081A194949880844184930
:104CA0004880084640881549098890FBF1F201FBCD
:104CB00012001349488000210F48FCF72DF902F03B
:104CC0006DF80E4800880C493039486301210A48C4
:104CD000FCF722F9074800F059F90821054800F0CF
:104CE0008DF830B1034800F051F90821014800F077
:104CF00009F810BD00480040300002406600002066
:104D00006C01002001F40072B2F5007F00D100BFF9
:104D1000CA430280704710B50022002340F66A148F
:104D2000A14200D100BF0A1201249440A3B2DC4387
:104D3000048010BD21B1828942F40052828104E0D6
:104D400082894DF6FF731A40828170471AB1838AB7
:104D50000B43838202E0838A8B4383827047000087
:104D600010B504462048844209D101218803FEF78A
:104D7000D3FC00214FF48040FEF7CEFC32E01B480C
:104D8000844209D101214804FEF7A6FC00214FF41A
:104D90000030FEF7A1FC25E01548844209D101212D
:104DA0008804FEF799FC00214FF48020FEF794FC64
:104DB00018E01048844209D10121C804FEF78CFC98
:104DC00000214FF40020FEF787FC0BE00A488442E4
:104DD00008D101210805FEF77FFC00214FF4801067
:104DE000FEF77AFC10BD000000380140004400408E
:104DF00000480040004C00400050004002460020A7
:104E0000B1F5007F00D100BF13880B400BB101202A
:104E100000E00020704770B5024600240023002502
:104E2000002040F66A16B14200D100BFC1F342151E
:104E300001F01F03012606FA03F3012D02D1968922
:104E4000334006E0022D02D1168A334001E0968AF3
:104E500033400C12012606FA04F41688344013B1CC
:104E60000CB1012000E0002070BDF0B50346002425
:104E700000260025002040F66A17B94200D100BF85
:104E80001846C1F3421401F01F06012707FA06F580
:104E9000012C01D10C3004E0022C01D1103000E0D3
:104EA00014301AB107682F43076002E00768AF4368
:104EB0000760F0BD2DE9F04786B005460E46002498
:104EC000A24600BFA1460027B08900B100BF2F460F
:104ED0002C8A4CF6FF700440F08804432C82AC8985
:104EE0004EF6F3100440B0883189084371890843B5
:104EF0000443AC81AC8A4FF6FF400440B0890443C0
:104F0000AC8201A8FEF718FC1F48874202D1DDF8E9
:104F100010A001E0DDF80CA0A88900F4004040B129
:104F20000AEBCA0000EB0A1031684900B0FBF1F847
:104F300007E00AEBCA0000EB0A1031688900B0FBF9
:104F4000F1F86420B8FBF0F004012009642101FBB2
:104F50001089A88900F4004040B1322000EBC9005C
:104F6000B0FBF1F000F00700044308E0322000EB52
:104F700009106421B0FBF1F000F00F0004432C8114
:104F800006B0BDE8F087000000380140014688887F
:104F9000C0F308007047C1F308028280704700BF69
:104FA000FEE7000030B58BB005460C461048FBF715
:104FB000BFFF01210846FEF76FFB0E4800900195E8
:104FC000102002900394002004908020059080011E
:104FD000099000200690079008900A9069460448BE
:104FE000FCF766F801210248FBF796FF0BB030BDD5
:104FF000440002400438014000B58BB01348FBF771
:1050000097FF01210846FEF747FB11480090114821
:105010000190002002901048008803900020049026
:1050200080200590400109900020069007902020E4
:10503000089000200A9069460448FCF739F80121DD
:105040000248FBF769FF0BB000BD000030000240D2
:1050500004480040720100206600002070B505463B
:105060000C4645F25550FCF773FB2846FCF764FBF1
:105070002046FCF767FB70BD10B5FCF74DFB10BD7B
:1050800001460E4880880E4A1288904201DB0020BB
:1050900070470A484288801D8154801F4088401C08
:1050A000074A128890FBF2F302FB1300034A508078
:1050B00010468088401C90800120E9E7080300200A
:1050C000660000200FB4054B10B503A9044A0298EE
:1050D00000F016FC10BC5DF814FB0000B96B000872
:1050E000B0000020490050EAC12018BF04204A0D3A
:1050F00018BF40F0010040F2FF72B2EB515F08BFF1
:1051000040F00200012808BF052070472DE9F74F45
:10511000144694B00021C4E902111599079121F0B9
:105120000045C9498D4206DC1599C4E9000117B054
:105130000020BDE8F08FC549DFF814A3A9423CDD8B
:105140000799C44E0029C44FC44A1599534619DD26
:10515000FBF773F9554506D0C14AC24BFBF76DF911
:10516000C4E900010AE04FF0D352BE4BFBF765F9EA
:1051700032463B46FBF761F9C4E9000117B0012054
:10518000BDE8F08FFBF7B8F8554506D0B44AB54BEB
:10519000FBF7B2F8C4E900010AE04FF0D352B14B7B
:1051A000FBF7AAF832463B46FBF7A6F8C4E9000134
:1051B00017B04FF0FF30BDE8F08FAB49A942159909
:1051C00078DB21F0004183468846A84AA84BFBF7CC
:1051D0003AF90022A74BFBF78FF8FBF748FA099042
:1051E000FBF720FA06460F469C4A5346FBF72BF97D
:1051F00043465A46FBF724F980468A46984A994B1B
:1052000030463946FBF71FF92A0D01250B9242461D
:105210005346FBF715F9032DC4E9000139D00B986B
:10522000C1F30A51401A05EB45111139814230DAB8
:105230009148C346784400EB0510CDF80CA00C90C3
:10524000D0E9002330463946FBF7FDF802460B460D
:105250000491069058460399FBF7EFF880468A467A
:1052600002460B4658460399FBF7E7F8049B069A5B
:10527000FBF7E3F883460C9803913946D0E9022303
:105280003046FBF7E0F85A46039BFBF7D6F86D1C57
:10529000BDE707980028A2BF099817B0BDE8F08FB6
:1052A000616881F000416160099817B04042BDE833
:1052B000F08FFFE784461598C1F31301C0F30A503D
:1052C000A0F2F5304FEA601800F01F06C6F120008A
:1052D000139000200690079041F4801E05206D4633
:1052E00076B1664A08EB00017A4452F8213002EBAD
:1052F0008101B3404A68139922FA01F1194305E08C
:105300005F4908EB0002794451F82210A1FB0E27F7
:10531000A1FB0C131A449A4234BF0123002303EB70
:10532000070A05EB8003D3E901B70F448F4234BF6E
:105330000121002193448B4411B1934502D903E02C
:10534000934501D2012100E00021C3E901B7514496
:1053500045F82010011EA0F10100C1DC0298059F54
:1053600000F10050800F12900298DDE90356800092
:10537000FBF758F9834628460D91FBF787FB6FF042
:105380001D02FBF7D9FACDE90E013046FBF77EFB93
:105390006FF03D02FBF7D0FA80468A463846FBF7AD
:1053A00075FB6FF05D02FBF7C7FA074642465346AE
:1053B0001191FAF7A1FFDDE90E23FAF79DFF5A4696
:1053C0000D9BFAF799FF00250E465A4628460D9B7D
:1053D000FBF733F8DDE90E23FBF72FF8424653467F
:1053E000FBF72BF83A46119BFBF72AF8DFF898A059
:1053F000244A5346FBF727F807468846234A244B9E
:1054000031462846FBF71FF83A464346FAF774FF41
:10541000074688464FF0A842534631462846FBF7D8
:1054200012F83A464346FAF767FF159A12F0004F12
:1054300004D0129A81F0004152421292C4E9000154
:10544000129817B0BDE8F08FFB21E93F7CD90240EC
:10545000FB21F93F7370032E8A19A33B00004054CF
:105460003163621A61B4D03DFB21394183C8C96DF3
:10547000305FE43F0000E03FD826000054260000E3
:1054800036260000182D4454FB21F93D3326A61181
:10549000460B113C2DE9FF4D21F0004807460C4614
:1054A000B8F1795F08DAFBF7E2F8002801BF0020C5
:1054B000324904B0BDE8F08D3A46234610461946FD
:1054C000FAF7C1FF054602462D480E460B46062157
:1054D000784400F05DF82A463346FAF7B4FFDDE978
:1054E000022382468B4638462146FAF7ACFF044633
:1054F0000F4652465B4628463146FAF7A4FF22463D
:105500003B46FAF79AFF07468A464FF0FF32284695
:105510003146FBF711FA1B4A90450ADA3A465346E0
:10552000FAF78BFF04B00022BDE8F04D134BFAF7F9
:1055300087BF154A4245A8BFA8F500154FF00004E3
:10554000B8BF124D22462B46FAF777FF064688462B
:1055500022462B4600200949FAF76FFF04460D4604
:105560003A46534630464146FAF767FF04B02246B2
:105570002B46BDE8F04DFAF763BF00000000F03F96
:10558000042400003333D33F0000E93F0000D23F42
:105590002DE9F0414F1E00EBC7010446D1E900019F
:1055A00015461E4637F006020DD02A463346FAF756
:1055B0004AFF7F1E04EBC703D3E90023FAF79CFEE2
:1055C00037F00602F1D1022F25D0042F13D0062F79
:1055D00018BFBDE8F0812A463346FAF734FFD4E914
:1055E0000A23FAF789FE2A463346FAF72CFFD4E954
:1055F0000823FAF781FE2A463346FAF724FFD4E956
:105600000623FAF779FE2A463346FAF71CFFD4E957
:105610000423FAF771FE2A463346FAF714FFD4E959
:105620000223FAF769FE2A463346FAF70CFFD4E95B
:105630000023BDE8F041FAF75FBE00002DE9FF4D01
:10564000054621F0004084B00C46B0F1795F0BDADA
:105650002846FFF747FD042808BF00F071F82846E8
:1056600008B02146BDE8F08D2A460B461046FAF7F1
:10567000EAFE06460F462A462346FAF7E4FE80462F
:1056800026488A4632463B4605217844FFF780FF8C
:1056900083461098029160B3214A224B40465146FE
:1056A000FAF7D1FECDE900015A4640465146029B29
:1056B000FAF7C9FE82468846DDE906014FF0FF325F
:1056C000FBF73AF952464346FAF7B7FE32463B46F5
:1056D000FAF7B9FEDDE90623FAF7AFFEDDE90023AC
:1056E000FAF7ABFE08B02A462346BDE8F04DFAF7BC
:1056F000A7BE0B465A4630463946FAF7A4FE084A7A
:10570000084BFAF7F9FD42465346FAF79CFE08B0FB
:105710002A462346BDE8F04DFAF7EEBD4A230000C5
:10572000495555555555C5BF0122FBF705B9FAF73F
:10573000E3BD0022134610461146FAF7F6BE0000FC
:10574000024A00201107FBF7F7B8000001FDFFFF38
:1057500002E008C8121F08C1002AFAD1704770473A
:10576000002001E001C1121F002AFBD17047000098
:105770000149086070470000B40000202DE9FF5F78
:1057800082B00021DDE90430020DDDF840B00343B2
:1057900018D044F61050A2F2FF324243151411986B
:1057A00001281FD0A5EB0B00401C5FEA000A4FF058
:1057B00000064E4FDFF83891B046504615D5CAF175
:1057C000000413E0119801244AA3012801D16FEAD3
:1057D0000B010298119AC0E90031C0E9024206B0FB
:1057E000BDE8F09FCBF10000DFE704460021404A0E
:1057F000491842EB0450CDE9001012E0E00707D051
:1058000032463B4640464946FAF71DFE80468946E9
:1058100032463B4610461946FAF715FE06460F4635
:105820006410002CEAD1DDE90401DDE90023BAF1BE
:10583000000F06DAFAF707FE42464B46FAF703FE78
:1058400005E0FAF772FE42464B46FAF76EFE044652
:105850000E460022284BFBF7EFF803D84FF0FF303D
:10586000014607E00022254B20463146FAF744FD69
:10587000FBF7CAF8102409E0002C0ADB0A220023F7
:10588000FAF764FF039B30321A55641E50EA010296
:10589000F2D1641C039AC4F111031444119A012A31
:1058A00003D0012208430DD10AE0084304D00020B0
:1058B0004FF0110B119072E7A3EB0B056D1E0DE07D
:1058C0005B4504DD4FF0000205F1010504E003DA59
:1058D0004FF00002A5F10105002AECD002981199C1
:1058E000C0E90231C0E9004579E70000000014403A
:1058F0000000F03F300000000000F0430000E03FF7
:105900002DE9FF4F95B09B468946064600250FE2DC
:10591000252877D100242746F84A0121059400E084
:10592000044316F8013F203B01FA03F01042F7D17F
:1059300030782A2811D06FF02F033078A0F1300290
:10594000092A16D8059A44F0020402EB820203EBFE
:1059500042021044761C0590EFE759F8042B05929B
:10596000002A03DA504244F40054059044F0020443
:10597000761C30782E2816D116F8010F44F0040456
:105980002A280DD06FF02F023078A0F13003092BB8
:1059900009D807EB870302EB4303C718761CF3E72C
:1059A00059F8047B761C30786C280FD006DC4C2824
:1059B00017D068280DD06A2814D104E0742810D0BC
:1059C0007A280FD10DE044F400140AE044F4801466
:1059D00001E044F440147278824202D104F580144C
:1059E000761C761C307866280BD013DC582877D0CC
:1059F00009DC002875D04528F6D04628F4D0472881
:105A00001AD19DE118E0632835D0642879D0652843
:105A100012D195E1702873D008DC6728F1D069288D
:105A20006FD06E280DD06F2806D1B5E073282CD02A
:105A3000752875D0782874D05A46179990476D1CF0
:105A400075E1C4F30250022809D003280DD0D9F81B
:105A5000001004280DD00D6009F1040967E1D9F8A0
:105A60000010EA17C1E90052F6E7D9F800100D80DE
:105A7000F2E70D70F0E719F8041B8DF80010002014
:105A80008DF80100EA46012003E059F804AB4FF01D
:105A9000FF3061074FF0000102D40DE008F1010171
:105AA0008846B9420FDA8045F8DB1AF80810002959
:105AB000F4D108E008F1010188468142FADB1AF8C6
:105AC00008100029F6D105985B46A0EB080721468F
:105AD0003846179A00F094FA284400EB080507E0CE
